{
  "address": "0x155d88A221Dc7d120dB4576dDFABC28553fc11b9",
  "abi": [
    {
      "inputs": [],
      "stateMutability": "nonpayable",
      "type": "constructor"
    },
    {
      "inputs": [],
      "name": "PairValidation__DuplicateRequest",
      "type": "error"
    },
    {
      "inputs": [],
      "name": "PairValidation__NothingToAccept",
      "type": "error"
    },
    {
      "anonymous": false,
      "inputs": [
        {
          "indexed": true,
          "internalType": "address",
          "name": "owner",
          "type": "address"
        },
        {
          "indexed": true,
          "internalType": "address",
          "name": "approved",
          "type": "address"
        },
        {
          "indexed": true,
          "internalType": "uint256",
          "name": "tokenId",
          "type": "uint256"
        }
      ],
      "name": "Approval",
      "type": "event"
    },
    {
      "anonymous": false,
      "inputs": [
        {
          "indexed": true,
          "internalType": "address",
          "name": "owner",
          "type": "address"
        },
        {
          "indexed": true,
          "internalType": "address",
          "name": "operator",
          "type": "address"
        },
        {
          "indexed": false,
          "internalType": "bool",
          "name": "approved",
          "type": "bool"
        }
      ],
      "name": "ApprovalForAll",
      "type": "event"
    },
    {
      "anonymous": false,
      "inputs": [
        {
          "indexed": true,
          "internalType": "address",
          "name": "verifier",
          "type": "address"
        }
      ],
      "name": "NftMinted",
      "type": "event"
    },
    {
      "anonymous": false,
      "inputs": [
        {
          "indexed": true,
          "internalType": "address",
          "name": "previousOwner",
          "type": "address"
        },
        {
          "indexed": true,
          "internalType": "address",
          "name": "newOwner",
          "type": "address"
        }
      ],
      "name": "OwnershipTransferred",
      "type": "event"
    },
    {
      "anonymous": false,
      "inputs": [
        {
          "indexed": true,
          "internalType": "address",
          "name": "verifier",
          "type": "address"
        }
      ],
      "name": "RequestSubmitted",
      "type": "event"
    },
    {
      "anonymous": false,
      "inputs": [
        {
          "indexed": true,
          "internalType": "address",
          "name": "from",
          "type": "address"
        },
        {
          "indexed": true,
          "internalType": "address",
          "name": "to",
          "type": "address"
        },
        {
          "indexed": true,
          "internalType": "uint256",
          "name": "tokenId",
          "type": "uint256"
        }
      ],
      "name": "Transfer",
      "type": "event"
    },
    {
      "inputs": [],
      "name": "acceptNft",
      "outputs": [],
      "stateMutability": "nonpayable",
      "type": "function"
    },
    {
      "inputs": [
        {
          "internalType": "address",
          "name": "to",
          "type": "address"
        },
        {
          "internalType": "uint256",
          "name": "tokenId",
          "type": "uint256"
        }
      ],
      "name": "approve",
      "outputs": [],
      "stateMutability": "nonpayable",
      "type": "function"
    },
    {
      "inputs": [
        {
          "internalType": "address",
          "name": "owner",
          "type": "address"
        }
      ],
      "name": "balanceOf",
      "outputs": [
        {
          "internalType": "uint256",
          "name": "",
          "type": "uint256"
        }
      ],
      "stateMutability": "view",
      "type": "function"
    },
    {
      "inputs": [
        {
          "internalType": "string",
          "name": "name1",
          "type": "string"
        },
        {
          "internalType": "string",
          "name": "name2",
          "type": "string"
        },
        {
          "internalType": "uint256",
          "name": "imageId",
          "type": "uint256"
        }
      ],
      "name": "createTokenURI",
      "outputs": [
        {
          "internalType": "string",
          "name": "",
          "type": "string"
        }
      ],
      "stateMutability": "view",
      "type": "function"
    },
    {
      "inputs": [
        {
          "internalType": "uint256",
          "name": "tokenId",
          "type": "uint256"
        }
      ],
      "name": "getApproved",
      "outputs": [
        {
          "internalType": "address",
          "name": "",
          "type": "address"
        }
      ],
      "stateMutability": "view",
      "type": "function"
    },
    {
      "inputs": [],
      "name": "getMappingSize",
      "outputs": [
        {
          "internalType": "uint256",
          "name": "",
          "type": "uint256"
        }
      ],
      "stateMutability": "view",
      "type": "function"
    },
    {
      "inputs": [
        {
          "internalType": "address",
          "name": "verifier",
          "type": "address"
        }
      ],
      "name": "getNftRequest",
      "outputs": [
        {
          "components": [
            {
              "internalType": "address",
              "name": "requestorAddress",
              "type": "address"
            },
            {
              "internalType": "uint256",
              "name": "exist",
              "type": "uint256"
            },
            {
              "internalType": "string",
              "name": "name1",
              "type": "string"
            },
            {
              "internalType": "string",
              "name": "name2",
              "type": "string"
            },
            {
              "internalType": "uint256",
              "name": "tokenType",
              "type": "uint256"
            }
          ],
          "internalType": "struct PairValidation.RequestDetails",
          "name": "",
          "type": "tuple"
        }
      ],
      "stateMutability": "view",
      "type": "function"
    },
    {
      "inputs": [],
      "name": "getTokenCounter",
      "outputs": [
        {
          "internalType": "uint256",
          "name": "",
          "type": "uint256"
        }
      ],
      "stateMutability": "view",
      "type": "function"
    },
    {
      "inputs": [
        {
          "internalType": "uint256",
          "name": "tokenId",
          "type": "uint256"
        }
      ],
      "name": "getTokenURI",
      "outputs": [
        {
          "internalType": "string",
          "name": "",
          "type": "string"
        }
      ],
      "stateMutability": "view",
      "type": "function"
    },
    {
      "inputs": [
        {
          "internalType": "address",
          "name": "owner",
          "type": "address"
        },
        {
          "internalType": "address",
          "name": "operator",
          "type": "address"
        }
      ],
      "name": "isApprovedForAll",
      "outputs": [
        {
          "internalType": "bool",
          "name": "",
          "type": "bool"
        }
      ],
      "stateMutability": "view",
      "type": "function"
    },
    {
      "inputs": [],
      "name": "name",
      "outputs": [
        {
          "internalType": "string",
          "name": "",
          "type": "string"
        }
      ],
      "stateMutability": "view",
      "type": "function"
    },
    {
      "inputs": [],
      "name": "owner",
      "outputs": [
        {
          "internalType": "address",
          "name": "",
          "type": "address"
        }
      ],
      "stateMutability": "view",
      "type": "function"
    },
    {
      "inputs": [
        {
          "internalType": "uint256",
          "name": "tokenId",
          "type": "uint256"
        }
      ],
      "name": "ownerOf",
      "outputs": [
        {
          "internalType": "address",
          "name": "",
          "type": "address"
        }
      ],
      "stateMutability": "view",
      "type": "function"
    },
    {
      "inputs": [],
      "name": "renounceOwnership",
      "outputs": [],
      "stateMutability": "nonpayable",
      "type": "function"
    },
    {
      "inputs": [
        {
          "internalType": "address",
          "name": "from",
          "type": "address"
        },
        {
          "internalType": "address",
          "name": "to",
          "type": "address"
        },
        {
          "internalType": "uint256",
          "name": "tokenId",
          "type": "uint256"
        }
      ],
      "name": "safeTransferFrom",
      "outputs": [],
      "stateMutability": "nonpayable",
      "type": "function"
    },
    {
      "inputs": [
        {
          "internalType": "address",
          "name": "from",
          "type": "address"
        },
        {
          "internalType": "address",
          "name": "to",
          "type": "address"
        },
        {
          "internalType": "uint256",
          "name": "tokenId",
          "type": "uint256"
        },
        {
          "internalType": "bytes",
          "name": "data",
          "type": "bytes"
        }
      ],
      "name": "safeTransferFrom",
      "outputs": [],
      "stateMutability": "nonpayable",
      "type": "function"
    },
    {
      "inputs": [
        {
          "internalType": "address",
          "name": "operator",
          "type": "address"
        },
        {
          "internalType": "bool",
          "name": "approved",
          "type": "bool"
        }
      ],
      "name": "setApprovalForAll",
      "outputs": [],
      "stateMutability": "nonpayable",
      "type": "function"
    },
    {
      "inputs": [
        {
          "internalType": "address",
          "name": "verifier",
          "type": "address"
        },
        {
          "internalType": "string",
          "name": "name1",
          "type": "string"
        },
        {
          "internalType": "string",
          "name": "name2",
          "type": "string"
        },
        {
          "internalType": "uint256",
          "name": "imageId",
          "type": "uint256"
        }
      ],
      "name": "submitRequestForNft",
      "outputs": [],
      "stateMutability": "nonpayable",
      "type": "function"
    },
    {
      "inputs": [
        {
          "internalType": "bytes4",
          "name": "interfaceId",
          "type": "bytes4"
        }
      ],
      "name": "supportsInterface",
      "outputs": [
        {
          "internalType": "bool",
          "name": "",
          "type": "bool"
        }
      ],
      "stateMutability": "view",
      "type": "function"
    },
    {
      "inputs": [],
      "name": "symbol",
      "outputs": [
        {
          "internalType": "string",
          "name": "",
          "type": "string"
        }
      ],
      "stateMutability": "view",
      "type": "function"
    },
    {
      "inputs": [
        {
          "internalType": "uint256",
          "name": "tokenId",
          "type": "uint256"
        }
      ],
      "name": "tokenURI",
      "outputs": [
        {
          "internalType": "string",
          "name": "",
          "type": "string"
        }
      ],
      "stateMutability": "view",
      "type": "function"
    },
    {
      "inputs": [
        {
          "internalType": "address",
          "name": "from",
          "type": "address"
        },
        {
          "internalType": "address",
          "name": "to",
          "type": "address"
        },
        {
          "internalType": "uint256",
          "name": "tokenId",
          "type": "uint256"
        }
      ],
      "name": "transferFrom",
      "outputs": [],
      "stateMutability": "nonpayable",
      "type": "function"
    },
    {
      "inputs": [
        {
          "internalType": "address",
          "name": "newOwner",
          "type": "address"
        }
      ],
      "name": "transferOwnership",
      "outputs": [],
      "stateMutability": "nonpayable",
      "type": "function"
    }
  ],
  "transactionHash": "0x8e20561d786df179e75607ec818da66be5df601b553801c07f5883829530f0f0",
  "args": [],
  "numDeployments": 4,
  "solcInputHash": "29d8eaefc0cb05a17d88e18366e87599",
  "bytecode": "0x60806040526040518060a0016040528060405180606001604052806035815260200162004819603591398152602001604051806060016040528060358152602001620047e4603591398152602001604051806060016040528060358152602001620048b86035913981526020016040518060600160405280603581526020016200484e6035913981526020016040518060600160405280603581526020016200488360359139815250600a906005620000ba929190620003b0565b506040518060a001604052806040518060400160405280600881526020017f42726f6b6556696d00000000000000000000000000000000000000000000000081525081526020016040518060400160405280600d81526020017f4f726967696e204d61737465720000000000000000000000000000000000000081525081526020016040518060400160405280601081526020017f506169722050726f6772616d6d696e670000000000000000000000000000000081525081526020016040518060400160405280600981526020017f536372657720697421000000000000000000000000000000000000000000000081525081526020016040518060400160405280600481526020017f536f6c6f00000000000000000000000000000000000000000000000000000000815250815250600f906005620001fd929190620003b0565b503480156200020b57600080fd5b506040518060400160405280600b81526020017f5061697254657374696e670000000000000000000000000000000000000000008152506040518060400160405280600381526020017f50545300000000000000000000000000000000000000000000000000000000008152508160009080519060200190620002909291906200040a565b508060019080519060200190620002a99291906200040a565b505050620002cc620002c0620002e260201b60201c565b620002ea60201b60201c565b600060088190555060006009819055506200058d565b600033905090565b6000600760009054906101000a900473ffffffffffffffffffffffffffffffffffffffff16905081600760006101000a81548173ffffffffffffffffffffffffffffffffffffffff021916908373ffffffffffffffffffffffffffffffffffffffff1602179055508173ffffffffffffffffffffffffffffffffffffffff168173ffffffffffffffffffffffffffffffffffffffff167f8be0079c531659141344cd1fd0a4f28419497f9722a3daafe3b4186f6b6457e060405160405180910390a35050565b8260058101928215620003f7579160200282015b82811115620003f6578251829080519060200190620003e59291906200040a565b5091602001919060010190620003c4565b5b5090506200040691906200049b565b5090565b828054620004189062000557565b90600052602060002090601f0160209004810192826200043c576000855562000488565b82601f106200045757805160ff191683800117855562000488565b8280016001018555821562000488579182015b82811115620004875782518255916020019190600101906200046a565b5b509050620004979190620004c3565b5090565b5b80821115620004bf5760008181620004b59190620004e2565b506001016200049c565b5090565b5b80821115620004de576000816000905550600101620004c4565b5090565b508054620004f09062000557565b6000825580601f1062000504575062000525565b601f016020900490600052602060002090810190620005249190620004c3565b5b50565b7f4e487b7100000000000000000000000000000000000000000000000000000000600052602260045260246000fd5b600060028204905060018216806200057057607f821691505b6020821081141562000587576200058662000528565b5b50919050565b614247806200059d6000396000f3fe608060405234801561001057600080fd5b506004361061014d5760003560e01c80636e02007d116100c3578063a22cb4651161007c578063a22cb4651461039e578063b88d4fde146103ba578063c87b56dd146103d6578063e48076c714610406578063e985e9c514610424578063f2fde38b146104545761014d565b80636e02007d146102ee57806370a082311461030c578063715018a61461033c5780638da5cb5b146103465780639155d50c1461036457806395d89b41146103805761014d565b806323b872dd1161011557806323b872dd146101f65780632d4f4c7b1461021257806336d73e9a146102425780633bb3a24d1461027257806342842e0e146102a25780636352211e146102be5761014d565b806301ffc9a71461015257806306fdde0314610182578063081812fc146101a0578063095ea7b3146101d05780631635881b146101ec575b600080fd5b61016c60048036038101906101679190612bdd565b610470565b6040516101799190612c25565b60405180910390f35b61018a610552565b6040516101979190612cd9565b60405180910390f35b6101ba60048036038101906101b59190612d31565b6105e4565b6040516101c79190612d9f565b60405180910390f35b6101ea60048036038101906101e59190612de6565b61062a565b005b6101f4610742565b005b610210600480360381019061020b9190612e26565b610ee4565b005b61022c60048036038101906102279190612e79565b610f44565b6040516102399190612f8b565b60405180910390f35b61025c600480360381019061025791906130e2565b61112b565b6040516102699190612cd9565b60405180910390f35b61028c60048036038101906102879190612d31565b6112c7565b6040516102999190612cd9565b60405180910390f35b6102bc60048036038101906102b79190612e26565b611321565b005b6102d860048036038101906102d39190612d31565b611341565b6040516102e59190612d9f565b60405180910390f35b6102f66113f3565b604051610303919061317c565b60405180910390f35b61032660048036038101906103219190612e79565b6113fd565b604051610333919061317c565b60405180910390f35b6103446114b5565b005b61034e6114c9565b60405161035b9190612d9f565b60405180910390f35b61037e60048036038101906103799190613197565b6114f3565b005b6103886118b4565b6040516103959190612cd9565b60405180910390f35b6103b860048036038101906103b39190613262565b611946565b005b6103d460048036038101906103cf9190613343565b61195c565b005b6103f060048036038101906103eb9190612d31565b6119be565b6040516103fd9190612cd9565b60405180910390f35b61040e611ad1565b60405161041b919061317c565b60405180910390f35b61043e600480360381019061043991906133c6565b611adb565b60405161044b9190612c25565b60405180910390f35b61046e60048036038101906104699190612e79565b611b6f565b005b60007f80ac58cd000000000000000000000000000000000000000000000000000000007bffffffffffffffffffffffffffffffffffffffffffffffffffffffff1916827bffffffffffffffffffffffffffffffffffffffffffffffffffffffff1916148061053b57507f5b5e139f000000000000000000000000000000000000000000000000000000007bffffffffffffffffffffffffffffffffffffffffffffffffffffffff1916827bffffffffffffffffffffffffffffffffffffffffffffffffffffffff1916145b8061054b575061054a82611bf3565b5b9050919050565b60606000805461056190613435565b80601f016020809104026020016040519081016040528092919081815260200182805461058d90613435565b80156105da5780601f106105af576101008083540402835291602001916105da565b820191906000526020600020905b8154815290600101906020018083116105bd57829003601f168201915b5050505050905090565b60006105ef82611c5d565b6004600083815260200190815260200160002060009054906101000a900473ffffffffffffffffffffffffffffffffffffffff169050919050565b600061063582611341565b90508073ffffffffffffffffffffffffffffffffffffffff168373ffffffffffffffffffffffffffffffffffffffff1614156106a6576040517f08c379a000000000000000000000000000000000000000000000000000000000815260040161069d906134d9565b60405180910390fd5b8073ffffffffffffffffffffffffffffffffffffffff166106c5611ca8565b73ffffffffffffffffffffffffffffffffffffffff1614806106f457506106f3816106ee611ca8565b611adb565b5b610733576040517f08c379a000000000000000000000000000000000000000000000000000000000815260040161072a9061356b565b60405180910390fd5b61073d8383611cb0565b505050565b336000601460008373ffffffffffffffffffffffffffffffffffffffff1673ffffffffffffffffffffffffffffffffffffffff1681526020019081526020016000206040518060a00160405290816000820160009054906101000a900473ffffffffffffffffffffffffffffffffffffffff1673ffffffffffffffffffffffffffffffffffffffff1673ffffffffffffffffffffffffffffffffffffffff168152602001600182015481526020016002820180546107ff90613435565b80601f016020809104026020016040519081016040528092919081815260200182805461082b90613435565b80156108785780601f1061084d57610100808354040283529160200191610878565b820191906000526020600020905b81548152906001019060200180831161085b57829003601f168201915b5050505050815260200160038201805461089190613435565b80601f01602080910402602001604051908101604052809291908181526020018280546108bd90613435565b801561090a5780601f106108df5761010080835404028352916020019161090a565b820191906000526020600020905b8154815290600101906020018083116108ed57829003601f168201915b50505050508152602001600482015481525050905060018160200151101561095e576040517f75abfc9700000000000000000000000000000000000000000000000000000000815260040160405180910390fd5b6000601460003373ffffffffffffffffffffffffffffffffffffffff1673ffffffffffffffffffffffffffffffffffffffff16815260200190815260200160002060000160009054906101000a900473ffffffffffffffffffffffffffffffffffffffff1690506000610ba8601460003373ffffffffffffffffffffffffffffffffffffffff1673ffffffffffffffffffffffffffffffffffffffff1681526020019081526020016000206002018054610a1790613435565b80601f0160208091040260200160405190810160405280929190818152602001828054610a4390613435565b8015610a905780601f10610a6557610100808354040283529160200191610a90565b820191906000526020600020905b815481529060010190602001808311610a7357829003601f168201915b5050505050601460003373ffffffffffffffffffffffffffffffffffffffff1673ffffffffffffffffffffffffffffffffffffffff1681526020019081526020016000206003018054610ae290613435565b80601f0160208091040260200160405190810160405280929190818152602001828054610b0e90613435565b8015610b5b5780601f10610b3057610100808354040283529160200191610b5b565b820191906000526020600020905b815481529060010190602001808311610b3e57829003601f168201915b5050505050601460003373ffffffffffffffffffffffffffffffffffffffff1673ffffffffffffffffffffffffffffffffffffffff1681526020019081526020016000206004015461112b565b9050610bb682600854611d69565b610bc260085482611d87565b6001600854610bd191906135ba565b6008819055506000610dba601460003373ffffffffffffffffffffffffffffffffffffffff1673ffffffffffffffffffffffffffffffffffffffff1681526020019081526020016000206002018054610c2990613435565b80601f0160208091040260200160405190810160405280929190818152602001828054610c5590613435565b8015610ca25780601f10610c7757610100808354040283529160200191610ca2565b820191906000526020600020905b815481529060010190602001808311610c8557829003601f168201915b5050505050601460003373ffffffffffffffffffffffffffffffffffffffff1673ffffffffffffffffffffffffffffffffffffffff1681526020019081526020016000206003018054610cf490613435565b80601f0160208091040260200160405190810160405280929190818152602001828054610d2090613435565b8015610d6d5780601f10610d4257610100808354040283529160200191610d6d565b820191906000526020600020905b815481529060010190602001808311610d5057829003601f168201915b5050505050601460003373ffffffffffffffffffffffffffffffffffffffff1673ffffffffffffffffffffffffffffffffffffffff1681526020019081526020016000206004015461112b565b9050610dc833600854611d69565b610dd460085482611d87565b6001600854610de391906135ba565b600881905550601460003373ffffffffffffffffffffffffffffffffffffffff1673ffffffffffffffffffffffffffffffffffffffff168152602001908152602001600020600080820160006101000a81549073ffffffffffffffffffffffffffffffffffffffff02191690556001820160009055600282016000610e689190612a49565b600382016000610e789190612a49565b6004820160009055505060096000815480929190610e9590613610565b91905055503373ffffffffffffffffffffffffffffffffffffffff167f3dab64d173b82cdea212bccb7c499f8f5a25d0cc1a55c9b50875f41b9f14084360405160405180910390a25050505050565b610ef5610eef611ca8565b82611dfb565b610f34576040517f08c379a0000000000000000000000000000000000000000000000000000000008152600401610f2b906136ac565b60405180910390fd5b610f3f838383611e90565b505050565b610f4c612a89565b601460008373ffffffffffffffffffffffffffffffffffffffff1673ffffffffffffffffffffffffffffffffffffffff1681526020019081526020016000206040518060a00160405290816000820160009054906101000a900473ffffffffffffffffffffffffffffffffffffffff1673ffffffffffffffffffffffffffffffffffffffff1673ffffffffffffffffffffffffffffffffffffffff1681526020016001820154815260200160028201805461100690613435565b80601f016020809104026020016040519081016040528092919081815260200182805461103290613435565b801561107f5780601f106110545761010080835404028352916020019161107f565b820191906000526020600020905b81548152906001019060200180831161106257829003601f168201915b5050505050815260200160038201805461109890613435565b80601f01602080910402602001604051908101604052809291908181526020018280546110c490613435565b80156111115780601f106110e657610100808354040283529160200191611111565b820191906000526020600020905b8154815290600101906020018083116110f457829003601f168201915b505050505081526020016004820154815250509050919050565b60606000600a8360058110611143576111426136cc565b5b01805461114f90613435565b80601f016020809104026020016040519081016040528092919081815260200182805461117b90613435565b80156111c85780601f1061119d576101008083540402835291602001916111c8565b820191906000526020600020905b8154815290600101906020018083116111ab57829003601f168201915b505050505090506000600f84600581106111e5576111e46136cc565b5b0180546111f190613435565b80601f016020809104026020016040519081016040528092919081815260200182805461121d90613435565b801561126a5780601f1061123f5761010080835404028352916020019161126a565b820191906000526020600020905b81548152906001019060200180831161124d57829003601f168201915b50505050509050600086866040516020016112869291906137cf565b60405160208183030381529060405290508181846040516020016112ac93929190613985565b60405160208183030381529060405293505050509392505050565b60606112d2826120f7565b611311576040517f08c379a000000000000000000000000000000000000000000000000000000000815260040161130890613a54565b60405180910390fd5b61131a826119be565b9050919050565b61133c8383836040518060200160405280600081525061195c565b505050565b6000806002600084815260200190815260200160002060009054906101000a900473ffffffffffffffffffffffffffffffffffffffff169050600073ffffffffffffffffffffffffffffffffffffffff168173ffffffffffffffffffffffffffffffffffffffff1614156113ea576040517f08c379a00000000000000000000000000000000000000000000000000000000081526004016113e190613ac0565b60405180910390fd5b80915050919050565b6000600854905090565b60008073ffffffffffffffffffffffffffffffffffffffff168273ffffffffffffffffffffffffffffffffffffffff16141561146e576040517f08c379a000000000000000000000000000000000000000000000000000000000815260040161146590613b52565b60405180910390fd5b600360008373ffffffffffffffffffffffffffffffffffffffff1673ffffffffffffffffffffffffffffffffffffffff168152602001908152602001600020549050919050565b6114bd612163565b6114c760006121e1565b565b6000600760009054906101000a900473ffffffffffffffffffffffffffffffffffffffff16905090565b33846000601460008373ffffffffffffffffffffffffffffffffffffffff1673ffffffffffffffffffffffffffffffffffffffff1681526020019081526020016000206040518060a00160405290816000820160009054906101000a900473ffffffffffffffffffffffffffffffffffffffff1673ffffffffffffffffffffffffffffffffffffffff1673ffffffffffffffffffffffffffffffffffffffff168152602001600182015481526020016002820180546115b190613435565b80601f01602080910402602001604051908101604052809291908181526020018280546115dd90613435565b801561162a5780601f106115ff5761010080835404028352916020019161162a565b820191906000526020600020905b81548152906001019060200180831161160d57829003601f168201915b5050505050815260200160038201805461164390613435565b80601f016020809104026020016040519081016040528092919081815260200182805461166f90613435565b80156116bc5780601f10611691576101008083540402835291602001916116bc565b820191906000526020600020905b81548152906001019060200180831161169f57829003601f168201915b5050505050815260200160048201548152505090508273ffffffffffffffffffffffffffffffffffffffff16816000015173ffffffffffffffffffffffffffffffffffffffff16141561173b576040517fdd7de15b00000000000000000000000000000000000000000000000000000000815260040160405180910390fd5b6040518060a001604052803373ffffffffffffffffffffffffffffffffffffffff1681526020016001815260200187815260200186815260200185815250601460008973ffffffffffffffffffffffffffffffffffffffff1673ffffffffffffffffffffffffffffffffffffffff16815260200190815260200160002060008201518160000160006101000a81548173ffffffffffffffffffffffffffffffffffffffff021916908373ffffffffffffffffffffffffffffffffffffffff160217905550602082015181600101556040820151816002019080519060200190611825929190612ace565b506060820151816003019080519060200190611842929190612ace565b50608082015181600401559050506009600081548092919061186390613b72565b91905055508673ffffffffffffffffffffffffffffffffffffffff167fb5ac7688e3b9755852feee81544b66f48c2a4e648ead4607c5213890a2b74b8b60405160405180910390a250505050505050565b6060600180546118c390613435565b80601f01602080910402602001604051908101604052809291908181526020018280546118ef90613435565b801561193c5780601f106119115761010080835404028352916020019161193c565b820191906000526020600020905b81548152906001019060200180831161191f57829003601f168201915b5050505050905090565b611958611951611ca8565b83836122a7565b5050565b61196d611967611ca8565b83611dfb565b6119ac576040517f08c379a00000000000000000000000000000000000000000000000000000000081526004016119a3906136ac565b60405180910390fd5b6119b884848484612414565b50505050565b60606119c982611c5d565b60006006600084815260200190815260200160002080546119e990613435565b80601f0160208091040260200160405190810160405280929190818152602001828054611a1590613435565b8015611a625780601f10611a3757610100808354040283529160200191611a62565b820191906000526020600020905b815481529060010190602001808311611a4557829003601f168201915b505050505090506000611a73612470565b9050600081511415611a89578192505050611acc565b600082511115611abe578082604051602001611aa6929190613bbb565b60405160208183030381529060405292505050611acc565b611ac784612487565b925050505b919050565b6000600954905090565b6000600560008473ffffffffffffffffffffffffffffffffffffffff1673ffffffffffffffffffffffffffffffffffffffff16815260200190815260200160002060008373ffffffffffffffffffffffffffffffffffffffff1673ffffffffffffffffffffffffffffffffffffffff16815260200190815260200160002060009054906101000a900460ff16905092915050565b611b77612163565b600073ffffffffffffffffffffffffffffffffffffffff168173ffffffffffffffffffffffffffffffffffffffff161415611be7576040517f08c379a0000000000000000000000000000000000000000000000000000000008152600401611bde90613c51565b60405180910390fd5b611bf0816121e1565b50565b60007f01ffc9a7000000000000000000000000000000000000000000000000000000007bffffffffffffffffffffffffffffffffffffffffffffffffffffffff1916827bffffffffffffffffffffffffffffffffffffffffffffffffffffffff1916149050919050565b611c66816120f7565b611ca5576040517f08c379a0000000000000000000000000000000000000000000000000000000008152600401611c9c90613ac0565b60405180910390fd5b50565b600033905090565b816004600083815260200190815260200160002060006101000a81548173ffffffffffffffffffffffffffffffffffffffff021916908373ffffffffffffffffffffffffffffffffffffffff160217905550808273ffffffffffffffffffffffffffffffffffffffff16611d2383611341565b73ffffffffffffffffffffffffffffffffffffffff167f8c5be1e5ebec7d5bd14f71427d1e84f3dd0314c0f7b2291e5b200ac8c7c3b92560405160405180910390a45050565b611d838282604051806020016040528060008152506124ef565b5050565b611d90826120f7565b611dcf576040517f08c379a0000000000000000000000000000000000000000000000000000000008152600401611dc690613ce3565b60405180910390fd5b80600660008481526020019081526020016000209080519060200190611df6929190612ace565b505050565b600080611e0783611341565b90508073ffffffffffffffffffffffffffffffffffffffff168473ffffffffffffffffffffffffffffffffffffffff161480611e495750611e488185611adb565b5b80611e8757508373ffffffffffffffffffffffffffffffffffffffff16611e6f846105e4565b73ffffffffffffffffffffffffffffffffffffffff16145b91505092915050565b8273ffffffffffffffffffffffffffffffffffffffff16611eb082611341565b73ffffffffffffffffffffffffffffffffffffffff1614611f06576040517f08c379a0000000000000000000000000000000000000000000000000000000008152600401611efd90613d75565b60405180910390fd5b600073ffffffffffffffffffffffffffffffffffffffff168273ffffffffffffffffffffffffffffffffffffffff161415611f76576040517f08c379a0000000000000000000000000000000000000000000000000000000008152600401611f6d90613e07565b60405180910390fd5b611f8183838361254a565b611f8c600082611cb0565b6001600360008573ffffffffffffffffffffffffffffffffffffffff1673ffffffffffffffffffffffffffffffffffffffff1681526020019081526020016000206000828254611fdc9190613e27565b925050819055506001600360008473ffffffffffffffffffffffffffffffffffffffff1673ffffffffffffffffffffffffffffffffffffffff168152602001908152602001600020600082825461203391906135ba565b92505081905550816002600083815260200190815260200160002060006101000a81548173ffffffffffffffffffffffffffffffffffffffff021916908373ffffffffffffffffffffffffffffffffffffffff160217905550808273ffffffffffffffffffffffffffffffffffffffff168473ffffffffffffffffffffffffffffffffffffffff167fddf252ad1be2c89b69c2b068fc378daa952ba7f163c4a11628f55a4df523b3ef60405160405180910390a46120f283838361254f565b505050565b60008073ffffffffffffffffffffffffffffffffffffffff166002600084815260200190815260200160002060009054906101000a900473ffffffffffffffffffffffffffffffffffffffff1673ffffffffffffffffffffffffffffffffffffffff1614159050919050565b61216b611ca8565b73ffffffffffffffffffffffffffffffffffffffff166121896114c9565b73ffffffffffffffffffffffffffffffffffffffff16146121df576040517f08c379a00000000000000000000000000000000000000000000000000000000081526004016121d690613ea7565b60405180910390fd5b565b6000600760009054906101000a900473ffffffffffffffffffffffffffffffffffffffff16905081600760006101000a81548173ffffffffffffffffffffffffffffffffffffffff021916908373ffffffffffffffffffffffffffffffffffffffff1602179055508173ffffffffffffffffffffffffffffffffffffffff168173ffffffffffffffffffffffffffffffffffffffff167f8be0079c531659141344cd1fd0a4f28419497f9722a3daafe3b4186f6b6457e060405160405180910390a35050565b8173ffffffffffffffffffffffffffffffffffffffff168373ffffffffffffffffffffffffffffffffffffffff161415612316576040517f08c379a000000000000000000000000000000000000000000000000000000000815260040161230d90613f13565b60405180910390fd5b80600560008573ffffffffffffffffffffffffffffffffffffffff1673ffffffffffffffffffffffffffffffffffffffff16815260200190815260200160002060008473ffffffffffffffffffffffffffffffffffffffff1673ffffffffffffffffffffffffffffffffffffffff16815260200190815260200160002060006101000a81548160ff0219169083151502179055508173ffffffffffffffffffffffffffffffffffffffff168373ffffffffffffffffffffffffffffffffffffffff167f17307eab39ab6107e8899845ad3d59bd9653f200f220920489ca2b5937696c31836040516124079190612c25565b60405180910390a3505050565b61241f848484611e90565b61242b84848484612554565b61246a576040517f08c379a000000000000000000000000000000000000000000000000000000000815260040161246190613fa5565b60405180910390fd5b50505050565b606060405180602001604052806000815250905090565b606061249282611c5d565b600061249c612470565b905060008151116124bc57604051806020016040528060008152506124e7565b806124c6846126eb565b6040516020016124d7929190613bbb565b6040516020818303038152906040525b915050919050565b6124f9838361284c565b6125066000848484612554565b612545576040517f08c379a000000000000000000000000000000000000000000000000000000000815260040161253c90613fa5565b60405180910390fd5b505050565b505050565b505050565b60006125758473ffffffffffffffffffffffffffffffffffffffff16612a26565b156126de578373ffffffffffffffffffffffffffffffffffffffff1663150b7a0261259e611ca8565b8786866040518563ffffffff1660e01b81526004016125c0949392919061401a565b602060405180830381600087803b1580156125da57600080fd5b505af192505050801561260b57506040513d601f19601f82011682018060405250810190612608919061407b565b60015b61268e573d806000811461263b576040519150601f19603f3d011682016040523d82523d6000602084013e612640565b606091505b50600081511415612686576040517f08c379a000000000000000000000000000000000000000000000000000000000815260040161267d90613fa5565b60405180910390fd5b805181602001fd5b63150b7a0260e01b7bffffffffffffffffffffffffffffffffffffffffffffffffffffffff1916817bffffffffffffffffffffffffffffffffffffffffffffffffffffffff1916149150506126e3565b600190505b949350505050565b60606000821415612733576040518060400160405280600181526020017f30000000000000000000000000000000000000000000000000000000000000008152509050612847565b600082905060005b6000821461276557808061274e90613b72565b915050600a8261275e91906140d7565b915061273b565b60008167ffffffffffffffff81111561278157612780612fb7565b5b6040519080825280601f01601f1916602001820160405280156127b35781602001600182028036833780820191505090505b5090505b60008514612840576001826127cc9190613e27565b9150600a856127db9190614108565b60306127e791906135ba565b60f81b8183815181106127fd576127fc6136cc565b5b60200101907effffffffffffffffffffffffffffffffffffffffffffffffffffffffffffff1916908160001a905350600a8561283991906140d7565b94506127b7565b8093505050505b919050565b600073ffffffffffffffffffffffffffffffffffffffff168273ffffffffffffffffffffffffffffffffffffffff1614156128bc576040517f08c379a00000000000000000000000000000000000000000000000000000000081526004016128b390614185565b60405180910390fd5b6128c5816120f7565b15612905576040517f08c379a00000000000000000000000000000000000000000000000000000000081526004016128fc906141f1565b60405180910390fd5b6129116000838361254a565b6001600360008473ffffffffffffffffffffffffffffffffffffffff1673ffffffffffffffffffffffffffffffffffffffff168152602001908152602001600020600082825461296191906135ba565b92505081905550816002600083815260200190815260200160002060006101000a81548173ffffffffffffffffffffffffffffffffffffffff021916908373ffffffffffffffffffffffffffffffffffffffff160217905550808273ffffffffffffffffffffffffffffffffffffffff16600073ffffffffffffffffffffffffffffffffffffffff167fddf252ad1be2c89b69c2b068fc378daa952ba7f163c4a11628f55a4df523b3ef60405160405180910390a4612a226000838361254f565b5050565b6000808273ffffffffffffffffffffffffffffffffffffffff163b119050919050565b508054612a5590613435565b6000825580601f10612a675750612a86565b601f016020900490600052602060002090810190612a859190612b54565b5b50565b6040518060a00160405280600073ffffffffffffffffffffffffffffffffffffffff168152602001600081526020016060815260200160608152602001600081525090565b828054612ada90613435565b90600052602060002090601f016020900481019282612afc5760008555612b43565b82601f10612b1557805160ff1916838001178555612b43565b82800160010185558215612b43579182015b82811115612b42578251825591602001919060010190612b27565b5b509050612b509190612b54565b5090565b5b80821115612b6d576000816000905550600101612b55565b5090565b6000604051905090565b600080fd5b600080fd5b60007fffffffff0000000000000000000000000000000000000000000000000000000082169050919050565b612bba81612b85565b8114612bc557600080fd5b50565b600081359050612bd781612bb1565b92915050565b600060208284031215612bf357612bf2612b7b565b5b6000612c0184828501612bc8565b91505092915050565b60008115159050919050565b612c1f81612c0a565b82525050565b6000602082019050612c3a6000830184612c16565b92915050565b600081519050919050565b600082825260208201905092915050565b60005b83811015612c7a578082015181840152602081019050612c5f565b83811115612c89576000848401525b50505050565b6000601f19601f8301169050919050565b6000612cab82612c40565b612cb58185612c4b565b9350612cc5818560208601612c5c565b612cce81612c8f565b840191505092915050565b60006020820190508181036000830152612cf38184612ca0565b905092915050565b6000819050919050565b612d0e81612cfb565b8114612d1957600080fd5b50565b600081359050612d2b81612d05565b92915050565b600060208284031215612d4757612d46612b7b565b5b6000612d5584828501612d1c565b91505092915050565b600073ffffffffffffffffffffffffffffffffffffffff82169050919050565b6000612d8982612d5e565b9050919050565b612d9981612d7e565b82525050565b6000602082019050612db46000830184612d90565b92915050565b612dc381612d7e565b8114612dce57600080fd5b50565b600081359050612de081612dba565b92915050565b60008060408385031215612dfd57612dfc612b7b565b5b6000612e0b85828601612dd1565b9250506020612e1c85828601612d1c565b9150509250929050565b600080600060608486031215612e3f57612e3e612b7b565b5b6000612e4d86828701612dd1565b9350506020612e5e86828701612dd1565b9250506040612e6f86828701612d1c565b9150509250925092565b600060208284031215612e8f57612e8e612b7b565b5b6000612e9d84828501612dd1565b91505092915050565b612eaf81612d7e565b82525050565b612ebe81612cfb565b82525050565b600082825260208201905092915050565b6000612ee082612c40565b612eea8185612ec4565b9350612efa818560208601612c5c565b612f0381612c8f565b840191505092915050565b600060a083016000830151612f266000860182612ea6565b506020830151612f396020860182612eb5565b5060408301518482036040860152612f518282612ed5565b91505060608301518482036060860152612f6b8282612ed5565b9150506080830151612f806080860182612eb5565b508091505092915050565b60006020820190508181036000830152612fa58184612f0e565b905092915050565b600080fd5b600080fd5b7f4e487b7100000000000000000000000000000000000000000000000000000000600052604160045260246000fd5b612fef82612c8f565b810181811067ffffffffffffffff8211171561300e5761300d612fb7565b5b80604052505050565b6000613021612b71565b905061302d8282612fe6565b919050565b600067ffffffffffffffff82111561304d5761304c612fb7565b5b61305682612c8f565b9050602081019050919050565b82818337600083830152505050565b600061308561308084613032565b613017565b9050828152602081018484840111156130a1576130a0612fb2565b5b6130ac848285613063565b509392505050565b600082601f8301126130c9576130c8612fad565b5b81356130d9848260208601613072565b91505092915050565b6000806000606084860312156130fb576130fa612b7b565b5b600084013567ffffffffffffffff81111561311957613118612b80565b5b613125868287016130b4565b935050602084013567ffffffffffffffff81111561314657613145612b80565b5b613152868287016130b4565b925050604061316386828701612d1c565b9150509250925092565b61317681612cfb565b82525050565b6000602082019050613191600083018461316d565b92915050565b600080600080608085870312156131b1576131b0612b7b565b5b60006131bf87828801612dd1565b945050602085013567ffffffffffffffff8111156131e0576131df612b80565b5b6131ec878288016130b4565b935050604085013567ffffffffffffffff81111561320d5761320c612b80565b5b613219878288016130b4565b925050606061322a87828801612d1c565b91505092959194509250565b61323f81612c0a565b811461324a57600080fd5b50565b60008135905061325c81613236565b92915050565b6000806040838503121561327957613278612b7b565b5b600061328785828601612dd1565b92505060206132988582860161324d565b9150509250929050565b600067ffffffffffffffff8211156132bd576132bc612fb7565b5b6132c682612c8f565b9050602081019050919050565b60006132e66132e1846132a2565b613017565b90508281526020810184848401111561330257613301612fb2565b5b61330d848285613063565b509392505050565b600082601f83011261332a57613329612fad565b5b813561333a8482602086016132d3565b91505092915050565b6000806000806080858703121561335d5761335c612b7b565b5b600061336b87828801612dd1565b945050602061337c87828801612dd1565b935050604061338d87828801612d1c565b925050606085013567ffffffffffffffff8111156133ae576133ad612b80565b5b6133ba87828801613315565b91505092959194509250565b600080604083850312156133dd576133dc612b7b565b5b60006133eb85828601612dd1565b92505060206133fc85828601612dd1565b9150509250929050565b7f4e487b7100000000000000000000000000000000000000000000000000000000600052602260045260246000fd5b6000600282049050600182168061344d57607f821691505b6020821081141561346157613460613406565b5b50919050565b7f4552433732313a20617070726f76616c20746f2063757272656e74206f776e6560008201527f7200000000000000000000000000000000000000000000000000000000000000602082015250565b60006134c3602183612c4b565b91506134ce82613467565b604082019050919050565b600060208201905081810360008301526134f2816134b6565b9050919050565b7f4552433732313a20617070726f76652063616c6c6572206973206e6f7420746f60008201527f6b656e206f776e6572206e6f7220617070726f76656420666f7220616c6c0000602082015250565b6000613555603e83612c4b565b9150613560826134f9565b604082019050919050565b6000602082019050818103600083015261358481613548565b9050919050565b7f4e487b7100000000000000000000000000000000000000000000000000000000600052601160045260246000fd5b60006135c582612cfb565b91506135d083612cfb565b9250827fffffffffffffffffffffffffffffffffffffffffffffffffffffffffffffffff038211156136055761360461358b565b5b828201905092915050565b600061361b82612cfb565b9150600082141561362f5761362e61358b565b5b600182039050919050565b7f4552433732313a2063616c6c6572206973206e6f7420746f6b656e206f776e6560008201527f72206e6f7220617070726f766564000000000000000000000000000000000000602082015250565b6000613696602e83612c4b565b91506136a18261363a565b604082019050919050565b600060208201905081810360008301526136c581613689565b9050919050565b7f4e487b7100000000000000000000000000000000000000000000000000000000600052603260045260246000fd5b600081905092915050565b7f506169722050726f6772616d6d696e6720746f6b656e20666f72200000000000600082015250565b600061373c601b836136fb565b915061374782613706565b601b82019050919050565b600061375d82612c40565b61376781856136fb565b9350613777818560208601612c5c565b80840191505092915050565b7f2077697468200000000000000000000000000000000000000000000000000000600082015250565b60006137b96006836136fb565b91506137c482613783565b600682019050919050565b60006137da8261372f565b91506137e68285613752565b91506137f1826137ac565b91506137fd8284613752565b91508190509392505050565b7f7b226e616d65223a220000000000000000000000000000000000000000000000600082015250565b600061383f6009836136fb565b915061384a82613809565b600982019050919050565b7f222c226465736372697074696f6e223a22000000000000000000000000000000600082015250565b600061388b6011836136fb565b915061389682613855565b601182019050919050565b7f222c2261747472696275746573223a5b7b2274726169745f74797065223a225360008201527f75626c61796572204e465473206561726c792075736572222c2276616c75652260208201527f3a3430347d5d2c22696d616765223a2200000000000000000000000000000000604082015250565b60006139236050836136fb565b915061392e826138a1565b605082019050919050565b7f227d000000000000000000000000000000000000000000000000000000000000600082015250565b600061396f6002836136fb565b915061397a82613939565b600282019050919050565b600061399082613832565b915061399c8286613752565b91506139a78261387e565b91506139b38285613752565b91506139be82613916565b91506139ca8284613752565b91506139d582613962565b9150819050949350505050565b7f4552433732314d657461646174613a2055524920717565727920666f72206e6f60008201527f6e6578697374656e7420746f6b656e0000000000000000000000000000000000602082015250565b6000613a3e602f83612c4b565b9150613a49826139e2565b604082019050919050565b60006020820190508181036000830152613a6d81613a31565b9050919050565b7f4552433732313a20696e76616c696420746f6b656e2049440000000000000000600082015250565b6000613aaa601883612c4b565b9150613ab582613a74565b602082019050919050565b60006020820190508181036000830152613ad981613a9d565b9050919050565b7f4552433732313a2061646472657373207a65726f206973206e6f74206120766160008201527f6c6964206f776e65720000000000000000000000000000000000000000000000602082015250565b6000613b3c602983612c4b565b9150613b4782613ae0565b604082019050919050565b60006020820190508181036000830152613b6b81613b2f565b9050919050565b6000613b7d82612cfb565b91507fffffffffffffffffffffffffffffffffffffffffffffffffffffffffffffffff821415613bb057613baf61358b565b5b600182019050919050565b6000613bc78285613752565b9150613bd38284613752565b91508190509392505050565b7f4f776e61626c653a206e6577206f776e657220697320746865207a65726f206160008201527f6464726573730000000000000000000000000000000000000000000000000000602082015250565b6000613c3b602683612c4b565b9150613c4682613bdf565b604082019050919050565b60006020820190508181036000830152613c6a81613c2e565b9050919050565b7f45524337323155524953746f726167653a2055524920736574206f66206e6f6e60008201527f6578697374656e7420746f6b656e000000000000000000000000000000000000602082015250565b6000613ccd602e83612c4b565b9150613cd882613c71565b604082019050919050565b60006020820190508181036000830152613cfc81613cc0565b9050919050565b7f4552433732313a207472616e736665722066726f6d20696e636f72726563742060008201527f6f776e6572000000000000000000000000000000000000000000000000000000602082015250565b6000613d5f602583612c4b565b9150613d6a82613d03565b604082019050919050565b60006020820190508181036000830152613d8e81613d52565b9050919050565b7f4552433732313a207472616e7366657220746f20746865207a65726f2061646460008201527f7265737300000000000000000000000000000000000000000000000000000000602082015250565b6000613df1602483612c4b565b9150613dfc82613d95565b604082019050919050565b60006020820190508181036000830152613e2081613de4565b9050919050565b6000613e3282612cfb565b9150613e3d83612cfb565b925082821015613e5057613e4f61358b565b5b828203905092915050565b7f4f776e61626c653a2063616c6c6572206973206e6f7420746865206f776e6572600082015250565b6000613e91602083612c4b565b9150613e9c82613e5b565b602082019050919050565b60006020820190508181036000830152613ec081613e84565b9050919050565b7f4552433732313a20617070726f766520746f2063616c6c657200000000000000600082015250565b6000613efd601983612c4b565b9150613f0882613ec7565b602082019050919050565b60006020820190508181036000830152613f2c81613ef0565b9050919050565b7f4552433732313a207472616e7366657220746f206e6f6e20455243373231526560008201527f63656976657220696d706c656d656e7465720000000000000000000000000000602082015250565b6000613f8f603283612c4b565b9150613f9a82613f33565b604082019050919050565b60006020820190508181036000830152613fbe81613f82565b9050919050565b600081519050919050565b600082825260208201905092915050565b6000613fec82613fc5565b613ff68185613fd0565b9350614006818560208601612c5c565b61400f81612c8f565b840191505092915050565b600060808201905061402f6000830187612d90565b61403c6020830186612d90565b614049604083018561316d565b818103606083015261405b8184613fe1565b905095945050505050565b60008151905061407581612bb1565b92915050565b60006020828403121561409157614090612b7b565b5b600061409f84828501614066565b91505092915050565b7f4e487b7100000000000000000000000000000000000000000000000000000000600052601260045260246000fd5b60006140e282612cfb565b91506140ed83612cfb565b9250826140fd576140fc6140a8565b5b828204905092915050565b600061411382612cfb565b915061411e83612cfb565b92508261412e5761412d6140a8565b5b828206905092915050565b7f4552433732313a206d696e7420746f20746865207a65726f2061646472657373600082015250565b600061416f602083612c4b565b915061417a82614139565b602082019050919050565b6000602082019050818103600083015261419e81614162565b9050919050565b7f4552433732313a20746f6b656e20616c7265616479206d696e74656400000000600082015250565b60006141db601c83612c4b565b91506141e6826141a5565b602082019050919050565b6000602082019050818103600083015261420a816141ce565b905091905056fea264697066735822122014a02e6bdb10cfd8a6a9aba130ae1313d1d80799440f284cf1b1123fde418ae064736f6c63430008080033697066733a2f2f516d6637635431484736636d4d757979696254744170774b4a7775387865624e4a32747257736748527264346755697066733a2f2f516d63387a6269704578743457593533697379785751655642597236694d345137765472574836734c6b68747573697066733a2f2f516d6635394c44676b3264757137557365443744784b344c4738394e6d476f3265554a43337a356a42354678666e697066733a2f2f516d565576365a4837453331376a4753584158716f3778595273685932564c39333946687368324357684a73364b697066733a2f2f516d54367563664b70746f5739567872694248506d425261746f5356507579594861353775574e57787a61573344",
  "devdoc": {
    "kind": "dev",
    "methods": {
      "approve(address,uint256)": {
        "details": "See {IERC721-approve}."
      },
      "balanceOf(address)": {
        "details": "See {IERC721-balanceOf}."
      },
      "getApproved(uint256)": {
        "details": "See {IERC721-getApproved}."
      },
      "isApprovedForAll(address,address)": {
        "details": "See {IERC721-isApprovedForAll}."
      },
      "name()": {
        "details": "See {IERC721Metadata-name}."
      },
      "owner()": {
        "details": "Returns the address of the current owner."
      },
      "ownerOf(uint256)": {
        "details": "See {IERC721-ownerOf}."
      },
      "renounceOwnership()": {
        "details": "Leaves the contract without owner. It will not be possible to call `onlyOwner` functions anymore. Can only be called by the current owner. NOTE: Renouncing ownership will leave the contract without an owner, thereby removing any functionality that is only available to the owner."
      },
      "safeTransferFrom(address,address,uint256)": {
        "details": "See {IERC721-safeTransferFrom}."
      },
      "safeTransferFrom(address,address,uint256,bytes)": {
        "details": "See {IERC721-safeTransferFrom}."
      },
      "setApprovalForAll(address,bool)": {
        "details": "See {IERC721-setApprovalForAll}."
      },
      "supportsInterface(bytes4)": {
        "details": "See {IERC165-supportsInterface}."
      },
      "symbol()": {
        "details": "See {IERC721Metadata-symbol}."
      },
      "tokenURI(uint256)": {
        "details": "See {IERC721Metadata-tokenURI}."
      },
      "transferFrom(address,address,uint256)": {
        "details": "See {IERC721-transferFrom}."
      },
      "transferOwnership(address)": {
        "details": "Transfers ownership of the contract to a new account (`newOwner`). Can only be called by the current owner."
      }
    },
    "version": 1
  },
  "userdoc": {
    "kind": "user",
    "methods": {},
    "version": 1
  },
  "storageLayout": {
    "storage": [
      {
        "astId": 138,
        "contract": "contracts/PairValidation.sol:PairValidation",
        "label": "_name",
        "offset": 0,
        "slot": "0",
        "type": "t_string_storage"
      },
      {
        "astId": 140,
        "contract": "contracts/PairValidation.sol:PairValidation",
        "label": "_symbol",
        "offset": 0,
        "slot": "1",
        "type": "t_string_storage"
      },
      {
        "astId": 144,
        "contract": "contracts/PairValidation.sol:PairValidation",
        "label": "_owners",
        "offset": 0,
        "slot": "2",
        "type": "t_mapping(t_uint256,t_address)"
      },
      {
        "astId": 148,
        "contract": "contracts/PairValidation.sol:PairValidation",
        "label": "_balances",
        "offset": 0,
        "slot": "3",
        "type": "t_mapping(t_address,t_uint256)"
      },
      {
        "astId": 152,
        "contract": "contracts/PairValidation.sol:PairValidation",
        "label": "_tokenApprovals",
        "offset": 0,
        "slot": "4",
        "type": "t_mapping(t_uint256,t_address)"
      },
      {
        "astId": 158,
        "contract": "contracts/PairValidation.sol:PairValidation",
        "label": "_operatorApprovals",
        "offset": 0,
        "slot": "5",
        "type": "t_mapping(t_address,t_mapping(t_address,t_bool))"
      },
      {
        "astId": 1127,
        "contract": "contracts/PairValidation.sol:PairValidation",
        "label": "_tokenURIs",
        "offset": 0,
        "slot": "6",
        "type": "t_mapping(t_uint256,t_string_storage)"
      },
      {
        "astId": 7,
        "contract": "contracts/PairValidation.sol:PairValidation",
        "label": "_owner",
        "offset": 0,
        "slot": "7",
        "type": "t_address"
      },
      {
        "astId": 1910,
        "contract": "contracts/PairValidation.sol:PairValidation",
        "label": "s_tokenCounter",
        "offset": 0,
        "slot": "8",
        "type": "t_uint256"
      },
      {
        "astId": 1912,
        "contract": "contracts/PairValidation.sol:PairValidation",
        "label": "s_mappingSize",
        "offset": 0,
        "slot": "9",
        "type": "t_uint256"
      },
      {
        "astId": 1922,
        "contract": "contracts/PairValidation.sol:PairValidation",
        "label": "imageArr",
        "offset": 0,
        "slot": "10",
        "type": "t_array(t_string_storage)5_storage"
      },
      {
        "astId": 1932,
        "contract": "contracts/PairValidation.sol:PairValidation",
        "label": "imageName",
        "offset": 0,
        "slot": "15",
        "type": "t_array(t_string_storage)5_storage"
      },
      {
        "astId": 1956,
        "contract": "contracts/PairValidation.sol:PairValidation",
        "label": "s_activeRequests",
        "offset": 0,
        "slot": "20",
        "type": "t_mapping(t_address,t_struct(RequestDetails)1943_storage)"
      }
    ],
    "types": {
      "t_address": {
        "encoding": "inplace",
        "label": "address",
        "numberOfBytes": "20"
      },
      "t_array(t_string_storage)5_storage": {
        "base": "t_string_storage",
        "encoding": "inplace",
        "label": "string[5]",
        "numberOfBytes": "160"
      },
      "t_bool": {
        "encoding": "inplace",
        "label": "bool",
        "numberOfBytes": "1"
      },
      "t_mapping(t_address,t_bool)": {
        "encoding": "mapping",
        "key": "t_address",
        "label": "mapping(address => bool)",
        "numberOfBytes": "32",
        "value": "t_bool"
      },
      "t_mapping(t_address,t_mapping(t_address,t_bool))": {
        "encoding": "mapping",
        "key": "t_address",
        "label": "mapping(address => mapping(address => bool))",
        "numberOfBytes": "32",
        "value": "t_mapping(t_address,t_bool)"
      },
      "t_mapping(t_address,t_struct(RequestDetails)1943_storage)": {
        "encoding": "mapping",
        "key": "t_address",
        "label": "mapping(address => struct PairValidation.RequestDetails)",
        "numberOfBytes": "32",
        "value": "t_struct(RequestDetails)1943_storage"
      },
      "t_mapping(t_address,t_uint256)": {
        "encoding": "mapping",
        "key": "t_address",
        "label": "mapping(address => uint256)",
        "numberOfBytes": "32",
        "value": "t_uint256"
      },
      "t_mapping(t_uint256,t_address)": {
        "encoding": "mapping",
        "key": "t_uint256",
        "label": "mapping(uint256 => address)",
        "numberOfBytes": "32",
        "value": "t_address"
      },
      "t_mapping(t_uint256,t_string_storage)": {
        "encoding": "mapping",
        "key": "t_uint256",
        "label": "mapping(uint256 => string)",
        "numberOfBytes": "32",
        "value": "t_string_storage"
      },
      "t_string_storage": {
        "encoding": "bytes",
        "label": "string",
        "numberOfBytes": "32"
      },
      "t_struct(RequestDetails)1943_storage": {
        "encoding": "inplace",
        "label": "struct PairValidation.RequestDetails",
        "members": [
          {
            "astId": 1934,
            "contract": "contracts/PairValidation.sol:PairValidation",
            "label": "requestorAddress",
            "offset": 0,
            "slot": "0",
            "type": "t_address"
          },
          {
            "astId": 1936,
            "contract": "contracts/PairValidation.sol:PairValidation",
            "label": "exist",
            "offset": 0,
            "slot": "1",
            "type": "t_uint256"
          },
          {
            "astId": 1938,
            "contract": "contracts/PairValidation.sol:PairValidation",
            "label": "name1",
            "offset": 0,
            "slot": "2",
            "type": "t_string_storage"
          },
          {
            "astId": 1940,
            "contract": "contracts/PairValidation.sol:PairValidation",
            "label": "name2",
            "offset": 0,
            "slot": "3",
            "type": "t_string_storage"
          },
          {
            "astId": 1942,
            "contract": "contracts/PairValidation.sol:PairValidation",
            "label": "tokenType",
            "offset": 0,
            "slot": "4",
            "type": "t_uint256"
          }
        ],
        "numberOfBytes": "160"
      },
      "t_uint256": {
        "encoding": "inplace",
        "label": "uint256",
        "numberOfBytes": "32"
      }
    }
  }
}