{
  "address": "0x1038D37E4C4015c2fCeae529db55fA2bd28451A9",
  "abi": [
    {
      "inputs": [],
      "stateMutability": "nonpayable",
      "type": "constructor"
    },
    {
      "inputs": [],
      "name": "PairValidation__DuplicateRequest",
      "type": "error"
    },
    {
      "inputs": [],
      "name": "PairValidation__NothingToAccept",
      "type": "error"
    },
    {
      "inputs": [],
      "name": "PairValidation__URI_QueryFor_NonExistentToken",
      "type": "error"
    },
    {
      "anonymous": false,
      "inputs": [
        {
          "indexed": true,
          "internalType": "address",
          "name": "owner",
          "type": "address"
        },
        {
          "indexed": true,
          "internalType": "address",
          "name": "approved",
          "type": "address"
        },
        {
          "indexed": true,
          "internalType": "uint256",
          "name": "tokenId",
          "type": "uint256"
        }
      ],
      "name": "Approval",
      "type": "event"
    },
    {
      "anonymous": false,
      "inputs": [
        {
          "indexed": true,
          "internalType": "address",
          "name": "owner",
          "type": "address"
        },
        {
          "indexed": true,
          "internalType": "address",
          "name": "operator",
          "type": "address"
        },
        {
          "indexed": false,
          "internalType": "bool",
          "name": "approved",
          "type": "bool"
        }
      ],
      "name": "ApprovalForAll",
      "type": "event"
    },
    {
      "anonymous": false,
      "inputs": [
        {
          "indexed": true,
          "internalType": "address",
          "name": "verifier",
          "type": "address"
        }
      ],
      "name": "NftMinted",
      "type": "event"
    },
    {
      "anonymous": false,
      "inputs": [
        {
          "indexed": true,
          "internalType": "address",
          "name": "verifier",
          "type": "address"
        }
      ],
      "name": "RequestSubmitted",
      "type": "event"
    },
    {
      "anonymous": false,
      "inputs": [
        {
          "indexed": true,
          "internalType": "address",
          "name": "from",
          "type": "address"
        },
        {
          "indexed": true,
          "internalType": "address",
          "name": "to",
          "type": "address"
        },
        {
          "indexed": true,
          "internalType": "uint256",
          "name": "tokenId",
          "type": "uint256"
        }
      ],
      "name": "Transfer",
      "type": "event"
    },
    {
      "inputs": [],
      "name": "TOKEN_URI",
      "outputs": [
        {
          "internalType": "string",
          "name": "",
          "type": "string"
        }
      ],
      "stateMutability": "view",
      "type": "function"
    },
    {
      "inputs": [],
      "name": "acceptNft",
      "outputs": [],
      "stateMutability": "nonpayable",
      "type": "function"
    },
    {
      "inputs": [
        {
          "internalType": "address",
          "name": "to",
          "type": "address"
        },
        {
          "internalType": "uint256",
          "name": "tokenId",
          "type": "uint256"
        }
      ],
      "name": "approve",
      "outputs": [],
      "stateMutability": "nonpayable",
      "type": "function"
    },
    {
      "inputs": [
        {
          "internalType": "address",
          "name": "owner",
          "type": "address"
        }
      ],
      "name": "balanceOf",
      "outputs": [
        {
          "internalType": "uint256",
          "name": "",
          "type": "uint256"
        }
      ],
      "stateMutability": "view",
      "type": "function"
    },
    {
      "inputs": [
        {
          "internalType": "uint256",
          "name": "tokenId",
          "type": "uint256"
        }
      ],
      "name": "getApproved",
      "outputs": [
        {
          "internalType": "address",
          "name": "",
          "type": "address"
        }
      ],
      "stateMutability": "view",
      "type": "function"
    },
    {
      "inputs": [],
      "name": "getMappingSize",
      "outputs": [
        {
          "internalType": "uint256",
          "name": "",
          "type": "uint256"
        }
      ],
      "stateMutability": "view",
      "type": "function"
    },
    {
      "inputs": [
        {
          "internalType": "address",
          "name": "verifier",
          "type": "address"
        }
      ],
      "name": "getNftRequest",
      "outputs": [
        {
          "components": [
            {
              "internalType": "address",
              "name": "requestorAddress",
              "type": "address"
            },
            {
              "internalType": "uint256",
              "name": "id",
              "type": "uint256"
            },
            {
              "internalType": "string",
              "name": "name1",
              "type": "string"
            },
            {
              "internalType": "string",
              "name": "name2",
              "type": "string"
            }
          ],
          "internalType": "struct PairValidation.RequestDetails",
          "name": "",
          "type": "tuple"
        }
      ],
      "stateMutability": "view",
      "type": "function"
    },
    {
      "inputs": [],
      "name": "getTokenCounter",
      "outputs": [
        {
          "internalType": "uint256",
          "name": "",
          "type": "uint256"
        }
      ],
      "stateMutability": "view",
      "type": "function"
    },
    {
      "inputs": [],
      "name": "getTokenURI",
      "outputs": [
        {
          "internalType": "string",
          "name": "",
          "type": "string"
        }
      ],
      "stateMutability": "pure",
      "type": "function"
    },
    {
      "inputs": [
        {
          "internalType": "address",
          "name": "owner",
          "type": "address"
        },
        {
          "internalType": "address",
          "name": "operator",
          "type": "address"
        }
      ],
      "name": "isApprovedForAll",
      "outputs": [
        {
          "internalType": "bool",
          "name": "",
          "type": "bool"
        }
      ],
      "stateMutability": "view",
      "type": "function"
    },
    {
      "inputs": [],
      "name": "name",
      "outputs": [
        {
          "internalType": "string",
          "name": "",
          "type": "string"
        }
      ],
      "stateMutability": "view",
      "type": "function"
    },
    {
      "inputs": [
        {
          "internalType": "uint256",
          "name": "tokenId",
          "type": "uint256"
        }
      ],
      "name": "ownerOf",
      "outputs": [
        {
          "internalType": "address",
          "name": "",
          "type": "address"
        }
      ],
      "stateMutability": "view",
      "type": "function"
    },
    {
      "inputs": [
        {
          "internalType": "address",
          "name": "from",
          "type": "address"
        },
        {
          "internalType": "address",
          "name": "to",
          "type": "address"
        },
        {
          "internalType": "uint256",
          "name": "tokenId",
          "type": "uint256"
        }
      ],
      "name": "safeTransferFrom",
      "outputs": [],
      "stateMutability": "nonpayable",
      "type": "function"
    },
    {
      "inputs": [
        {
          "internalType": "address",
          "name": "from",
          "type": "address"
        },
        {
          "internalType": "address",
          "name": "to",
          "type": "address"
        },
        {
          "internalType": "uint256",
          "name": "tokenId",
          "type": "uint256"
        },
        {
          "internalType": "bytes",
          "name": "data",
          "type": "bytes"
        }
      ],
      "name": "safeTransferFrom",
      "outputs": [],
      "stateMutability": "nonpayable",
      "type": "function"
    },
    {
      "inputs": [
        {
          "internalType": "address",
          "name": "operator",
          "type": "address"
        },
        {
          "internalType": "bool",
          "name": "approved",
          "type": "bool"
        }
      ],
      "name": "setApprovalForAll",
      "outputs": [],
      "stateMutability": "nonpayable",
      "type": "function"
    },
    {
      "inputs": [
        {
          "internalType": "address",
          "name": "verifier",
          "type": "address"
        },
        {
          "internalType": "string",
          "name": "name1",
          "type": "string"
        },
        {
          "internalType": "string",
          "name": "name2",
          "type": "string"
        }
      ],
      "name": "submitRequestForNft",
      "outputs": [],
      "stateMutability": "nonpayable",
      "type": "function"
    },
    {
      "inputs": [
        {
          "internalType": "bytes4",
          "name": "interfaceId",
          "type": "bytes4"
        }
      ],
      "name": "supportsInterface",
      "outputs": [
        {
          "internalType": "bool",
          "name": "",
          "type": "bool"
        }
      ],
      "stateMutability": "view",
      "type": "function"
    },
    {
      "inputs": [],
      "name": "symbol",
      "outputs": [
        {
          "internalType": "string",
          "name": "",
          "type": "string"
        }
      ],
      "stateMutability": "view",
      "type": "function"
    },
    {
      "inputs": [
        {
          "internalType": "uint256",
          "name": "tokenId",
          "type": "uint256"
        }
      ],
      "name": "tokenURI",
      "outputs": [
        {
          "internalType": "string",
          "name": "",
          "type": "string"
        }
      ],
      "stateMutability": "view",
      "type": "function"
    },
    {
      "inputs": [
        {
          "internalType": "address",
          "name": "from",
          "type": "address"
        },
        {
          "internalType": "address",
          "name": "to",
          "type": "address"
        },
        {
          "internalType": "uint256",
          "name": "tokenId",
          "type": "uint256"
        }
      ],
      "name": "transferFrom",
      "outputs": [],
      "stateMutability": "nonpayable",
      "type": "function"
    }
  ],
  "transactionHash": "0x601d68e6b1a013e75cb2c8ec30091fa129a3a5f2370fbde985deb79b20c06cb7",
  "args": [],
  "numDeployments": 2,
  "solcInputHash": "66c9971cb8ade3e68abaa0466b9074ff",
  "bytecode": "0x60806040523480156200001157600080fd5b506040518060400160405280600f81526020017f5061697250726f6772616d6d696e6700000000000000000000000000000000008152506040518060400160405280600381526020017f50504d0000000000000000000000000000000000000000000000000000000000815250816000908051906020019062000096929190620000c8565b508060019080519060200190620000af929190620000c8565b50505060006006819055506000600781905550620001dd565b828054620000d690620001a7565b90600052602060002090601f016020900481019282620000fa576000855562000146565b82601f106200011557805160ff191683800117855562000146565b8280016001018555821562000146579182015b828111156200014557825182559160200191906001019062000128565b5b50905062000155919062000159565b5090565b5b80821115620001745760008160009055506001016200015a565b5090565b7f4e487b7100000000000000000000000000000000000000000000000000000000600052602260045260246000fd5b60006002820490506001821680620001c057607f821691505b60208210811415620001d757620001d662000178565b5b50919050565b61308d80620001ed6000396000f3fe608060405234801561001057600080fd5b506004361061012c5760003560e01c806370a08231116100ad578063b88d4fde11610071578063b88d4fde1461032f578063c87b56dd1461034b578063d4a191161461037b578063e48076c714610399578063e985e9c5146103b75761012c565b806370a082311461028b57806378ce9035146102bb57806381ad9a63146102d957806395d89b41146102f5578063a22cb465146103135761012c565b806323b872dd116100f457806323b872dd146101d55780632d4f4c7b146101f157806342842e0e146102215780636352211e1461023d5780636e02007d1461026d5761012c565b806301ffc9a71461013157806306fdde0314610161578063081812fc1461017f578063095ea7b3146101af5780631635881b146101cb575b600080fd5b61014b6004803603810190610146919061206b565b6103e7565b60405161015891906120b3565b60405180910390f35b6101696104c9565b6040516101769190612167565b60405180910390f35b610199600480360381019061019491906121bf565b61055b565b6040516101a6919061222d565b60405180910390f35b6101c960048036038101906101c49190612274565b6105a1565b005b6101d36106b9565b005b6101ef60048036038101906101ea91906122b4565b610a64565b005b61020b60048036038101906102069190612307565b610ac4565b6040516102189190612406565b60405180910390f35b61023b600480360381019061023691906122b4565b610ca1565b005b610257600480360381019061025291906121bf565b610cc1565b604051610264919061222d565b60405180910390f35b610275610d73565b6040516102829190612437565b60405180910390f35b6102a560048036038101906102a09190612307565b610d7d565b6040516102b29190612437565b60405180910390f35b6102c3610e35565b6040516102d09190612167565b60405180910390f35b6102f360048036038101906102ee9190612587565b610e51565b005b6102fd6111f7565b60405161030a9190612167565b60405180910390f35b61032d6004803603810190610328919061263e565b611289565b005b6103496004803603810190610344919061271f565b61129f565b005b610365600480360381019061036091906121bf565b611301565b6040516103729190612167565b60405180910390f35b610383611362565b6040516103909190612167565b60405180910390f35b6103a1611382565b6040516103ae9190612437565b60405180910390f35b6103d160048036038101906103cc91906127a2565b61138c565b6040516103de91906120b3565b60405180910390f35b60007f80ac58cd000000000000000000000000000000000000000000000000000000007bffffffffffffffffffffffffffffffffffffffffffffffffffffffff1916827bffffffffffffffffffffffffffffffffffffffffffffffffffffffff191614806104b257507f5b5e139f000000000000000000000000000000000000000000000000000000007bffffffffffffffffffffffffffffffffffffffffffffffffffffffff1916827bffffffffffffffffffffffffffffffffffffffffffffffffffffffff1916145b806104c257506104c182611420565b5b9050919050565b6060600080546104d890612811565b80601f016020809104026020016040519081016040528092919081815260200182805461050490612811565b80156105515780601f1061052657610100808354040283529160200191610551565b820191906000526020600020905b81548152906001019060200180831161053457829003601f168201915b5050505050905090565b60006105668261148a565b6004600083815260200190815260200160002060009054906101000a900473ffffffffffffffffffffffffffffffffffffffff169050919050565b60006105ac82610cc1565b90508073ffffffffffffffffffffffffffffffffffffffff168373ffffffffffffffffffffffffffffffffffffffff16141561061d576040517f08c379a0000000000000000000000000000000000000000000000000000000008152600401610614906128b5565b60405180910390fd5b8073ffffffffffffffffffffffffffffffffffffffff1661063c6114d5565b73ffffffffffffffffffffffffffffffffffffffff16148061066b575061066a816106656114d5565b61138c565b5b6106aa576040517f08c379a00000000000000000000000000000000000000000000000000000000081526004016106a190612947565b60405180910390fd5b6106b483836114dd565b505050565b336000600860008373ffffffffffffffffffffffffffffffffffffffff1673ffffffffffffffffffffffffffffffffffffffff1681526020019081526020016000206040518060800160405290816000820160009054906101000a900473ffffffffffffffffffffffffffffffffffffffff1673ffffffffffffffffffffffffffffffffffffffff1673ffffffffffffffffffffffffffffffffffffffff1681526020016001820154815260200160028201805461077690612811565b80601f01602080910402602001604051908101604052809291908181526020018280546107a290612811565b80156107ef5780601f106107c4576101008083540402835291602001916107ef565b820191906000526020600020905b8154815290600101906020018083116107d257829003601f168201915b5050505050815260200160038201805461080890612811565b80601f016020809104026020016040519081016040528092919081815260200182805461083490612811565b80156108815780601f1061085657610100808354040283529160200191610881565b820191906000526020600020905b81548152906001019060200180831161086457829003601f168201915b505050505081525050905060008160200151116108ca576040517f75abfc9700000000000000000000000000000000000000000000000000000000815260040160405180910390fd5b6000600860003373ffffffffffffffffffffffffffffffffffffffff1673ffffffffffffffffffffffffffffffffffffffff16815260200190815260200160002060000160009054906101000a900473ffffffffffffffffffffffffffffffffffffffff16905061093d81600654611596565b600160065461094c9190612996565b60068190555061095e33600654611596565b600160065461096d9190612996565b600681905550600860003373ffffffffffffffffffffffffffffffffffffffff1673ffffffffffffffffffffffffffffffffffffffff168152602001908152602001600020600080820160006101000a81549073ffffffffffffffffffffffffffffffffffffffff021916905560018201600090556002820160006109f29190611ede565b600382016000610a029190611ede565b505060076000815480929190610a17906129ec565b91905055503373ffffffffffffffffffffffffffffffffffffffff167f3dab64d173b82cdea212bccb7c499f8f5a25d0cc1a55c9b50875f41b9f14084360405160405180910390a2505050565b610a75610a6f6114d5565b826115b4565b610ab4576040517f08c379a0000000000000000000000000000000000000000000000000000000008152600401610aab90612a88565b60405180910390fd5b610abf838383611649565b505050565b610acc611f1e565b600860008373ffffffffffffffffffffffffffffffffffffffff1673ffffffffffffffffffffffffffffffffffffffff1681526020019081526020016000206040518060800160405290816000820160009054906101000a900473ffffffffffffffffffffffffffffffffffffffff1673ffffffffffffffffffffffffffffffffffffffff1673ffffffffffffffffffffffffffffffffffffffff16815260200160018201548152602001600282018054610b8690612811565b80601f0160208091040260200160405190810160405280929190818152602001828054610bb290612811565b8015610bff5780601f10610bd457610100808354040283529160200191610bff565b820191906000526020600020905b815481529060010190602001808311610be257829003601f168201915b50505050508152602001600382018054610c1890612811565b80601f0160208091040260200160405190810160405280929190818152602001828054610c4490612811565b8015610c915780601f10610c6657610100808354040283529160200191610c91565b820191906000526020600020905b815481529060010190602001808311610c7457829003601f168201915b5050505050815250509050919050565b610cbc8383836040518060200160405280600081525061129f565b505050565b6000806002600084815260200190815260200160002060009054906101000a900473ffffffffffffffffffffffffffffffffffffffff169050600073ffffffffffffffffffffffffffffffffffffffff168173ffffffffffffffffffffffffffffffffffffffff161415610d6a576040517f08c379a0000000000000000000000000000000000000000000000000000000008152600401610d6190612af4565b60405180910390fd5b80915050919050565b6000600654905090565b60008073ffffffffffffffffffffffffffffffffffffffff168273ffffffffffffffffffffffffffffffffffffffff161415610dee576040517f08c379a0000000000000000000000000000000000000000000000000000000008152600401610de590612b86565b60405180910390fd5b600360008373ffffffffffffffffffffffffffffffffffffffff1673ffffffffffffffffffffffffffffffffffffffff168152602001908152602001600020549050919050565b6040518060800160405280605781526020016130016057913981565b33836000600860008373ffffffffffffffffffffffffffffffffffffffff1673ffffffffffffffffffffffffffffffffffffffff1681526020019081526020016000206040518060800160405290816000820160009054906101000a900473ffffffffffffffffffffffffffffffffffffffff1673ffffffffffffffffffffffffffffffffffffffff1673ffffffffffffffffffffffffffffffffffffffff16815260200160018201548152602001600282018054610f0f90612811565b80601f0160208091040260200160405190810160405280929190818152602001828054610f3b90612811565b8015610f885780601f10610f5d57610100808354040283529160200191610f88565b820191906000526020600020905b815481529060010190602001808311610f6b57829003601f168201915b50505050508152602001600382018054610fa190612811565b80601f0160208091040260200160405190810160405280929190818152602001828054610fcd90612811565b801561101a5780601f10610fef5761010080835404028352916020019161101a565b820191906000526020600020905b815481529060010190602001808311610ffd57829003601f168201915b50505050508152505090508273ffffffffffffffffffffffffffffffffffffffff16816000015173ffffffffffffffffffffffffffffffffffffffff16141561108f576040517fdd7de15b00000000000000000000000000000000000000000000000000000000815260040160405180910390fd5b60405180608001604052803373ffffffffffffffffffffffffffffffffffffffff1681526020016001815260200186815260200185815250600860008873ffffffffffffffffffffffffffffffffffffffff1673ffffffffffffffffffffffffffffffffffffffff16815260200190815260200160002060008201518160000160006101000a81548173ffffffffffffffffffffffffffffffffffffffff021916908373ffffffffffffffffffffffffffffffffffffffff160217905550602082015181600101556040820151816002019080519060200190611173929190611f5c565b506060820151816003019080519060200190611190929190611f5c565b50905050600760008154809291906111a790612ba6565b91905055508573ffffffffffffffffffffffffffffffffffffffff167fb5ac7688e3b9755852feee81544b66f48c2a4e648ead4607c5213890a2b74b8b60405160405180910390a2505050505050565b60606001805461120690612811565b80601f016020809104026020016040519081016040528092919081815260200182805461123290612811565b801561127f5780601f106112545761010080835404028352916020019161127f565b820191906000526020600020905b81548152906001019060200180831161126257829003601f168201915b5050505050905090565b61129b6112946114d5565b83836118b0565b5050565b6112b06112aa6114d5565b836115b4565b6112ef576040517f08c379a00000000000000000000000000000000000000000000000000000000081526004016112e690612a88565b60405180910390fd5b6112fb84848484611a1d565b50505050565b606061130c82611a79565b611342576040517fc4a02e7500000000000000000000000000000000000000000000000000000000815260040160405180910390fd5b604051806080016040528060578152602001613001605791399050919050565b606060405180608001604052806057815260200161300160579139905090565b6000600754905090565b6000600560008473ffffffffffffffffffffffffffffffffffffffff1673ffffffffffffffffffffffffffffffffffffffff16815260200190815260200160002060008373ffffffffffffffffffffffffffffffffffffffff1673ffffffffffffffffffffffffffffffffffffffff16815260200190815260200160002060009054906101000a900460ff16905092915050565b60007f01ffc9a7000000000000000000000000000000000000000000000000000000007bffffffffffffffffffffffffffffffffffffffffffffffffffffffff1916827bffffffffffffffffffffffffffffffffffffffffffffffffffffffff1916149050919050565b61149381611a79565b6114d2576040517f08c379a00000000000000000000000000000000000000000000000000000000081526004016114c990612af4565b60405180910390fd5b50565b600033905090565b816004600083815260200190815260200160002060006101000a81548173ffffffffffffffffffffffffffffffffffffffff021916908373ffffffffffffffffffffffffffffffffffffffff160217905550808273ffffffffffffffffffffffffffffffffffffffff1661155083610cc1565b73ffffffffffffffffffffffffffffffffffffffff167f8c5be1e5ebec7d5bd14f71427d1e84f3dd0314c0f7b2291e5b200ac8c7c3b92560405160405180910390a45050565b6115b0828260405180602001604052806000815250611ae5565b5050565b6000806115c083610cc1565b90508073ffffffffffffffffffffffffffffffffffffffff168473ffffffffffffffffffffffffffffffffffffffff1614806116025750611601818561138c565b5b8061164057508373ffffffffffffffffffffffffffffffffffffffff166116288461055b565b73ffffffffffffffffffffffffffffffffffffffff16145b91505092915050565b8273ffffffffffffffffffffffffffffffffffffffff1661166982610cc1565b73ffffffffffffffffffffffffffffffffffffffff16146116bf576040517f08c379a00000000000000000000000000000000000000000000000000000000081526004016116b690612c61565b60405180910390fd5b600073ffffffffffffffffffffffffffffffffffffffff168273ffffffffffffffffffffffffffffffffffffffff16141561172f576040517f08c379a000000000000000000000000000000000000000000000000000000000815260040161172690612cf3565b60405180910390fd5b61173a838383611b40565b6117456000826114dd565b6001600360008573ffffffffffffffffffffffffffffffffffffffff1673ffffffffffffffffffffffffffffffffffffffff16815260200190815260200160002060008282546117959190612d13565b925050819055506001600360008473ffffffffffffffffffffffffffffffffffffffff1673ffffffffffffffffffffffffffffffffffffffff16815260200190815260200160002060008282546117ec9190612996565b92505081905550816002600083815260200190815260200160002060006101000a81548173ffffffffffffffffffffffffffffffffffffffff021916908373ffffffffffffffffffffffffffffffffffffffff160217905550808273ffffffffffffffffffffffffffffffffffffffff168473ffffffffffffffffffffffffffffffffffffffff167fddf252ad1be2c89b69c2b068fc378daa952ba7f163c4a11628f55a4df523b3ef60405160405180910390a46118ab838383611b45565b505050565b8173ffffffffffffffffffffffffffffffffffffffff168373ffffffffffffffffffffffffffffffffffffffff16141561191f576040517f08c379a000000000000000000000000000000000000000000000000000000000815260040161191690612d93565b60405180910390fd5b80600560008573ffffffffffffffffffffffffffffffffffffffff1673ffffffffffffffffffffffffffffffffffffffff16815260200190815260200160002060008473ffffffffffffffffffffffffffffffffffffffff1673ffffffffffffffffffffffffffffffffffffffff16815260200190815260200160002060006101000a81548160ff0219169083151502179055508173ffffffffffffffffffffffffffffffffffffffff168373ffffffffffffffffffffffffffffffffffffffff167f17307eab39ab6107e8899845ad3d59bd9653f200f220920489ca2b5937696c3183604051611a1091906120b3565b60405180910390a3505050565b611a28848484611649565b611a3484848484611b4a565b611a73576040517f08c379a0000000000000000000000000000000000000000000000000000000008152600401611a6a90612e25565b60405180910390fd5b50505050565b60008073ffffffffffffffffffffffffffffffffffffffff166002600084815260200190815260200160002060009054906101000a900473ffffffffffffffffffffffffffffffffffffffff1673ffffffffffffffffffffffffffffffffffffffff1614159050919050565b611aef8383611ce1565b611afc6000848484611b4a565b611b3b576040517f08c379a0000000000000000000000000000000000000000000000000000000008152600401611b3290612e25565b60405180910390fd5b505050565b505050565b505050565b6000611b6b8473ffffffffffffffffffffffffffffffffffffffff16611ebb565b15611cd4578373ffffffffffffffffffffffffffffffffffffffff1663150b7a02611b946114d5565b8786866040518563ffffffff1660e01b8152600401611bb69493929190612e9a565b602060405180830381600087803b158015611bd057600080fd5b505af1925050508015611c0157506040513d601f19601f82011682018060405250810190611bfe9190612efb565b60015b611c84573d8060008114611c31576040519150601f19603f3d011682016040523d82523d6000602084013e611c36565b606091505b50600081511415611c7c576040517f08c379a0000000000000000000000000000000000000000000000000000000008152600401611c7390612e25565b60405180910390fd5b805181602001fd5b63150b7a0260e01b7bffffffffffffffffffffffffffffffffffffffffffffffffffffffff1916817bffffffffffffffffffffffffffffffffffffffffffffffffffffffff191614915050611cd9565b600190505b949350505050565b600073ffffffffffffffffffffffffffffffffffffffff168273ffffffffffffffffffffffffffffffffffffffff161415611d51576040517f08c379a0000000000000000000000000000000000000000000000000000000008152600401611d4890612f74565b60405180910390fd5b611d5a81611a79565b15611d9a576040517f08c379a0000000000000000000000000000000000000000000000000000000008152600401611d9190612fe0565b60405180910390fd5b611da660008383611b40565b6001600360008473ffffffffffffffffffffffffffffffffffffffff1673ffffffffffffffffffffffffffffffffffffffff1681526020019081526020016000206000828254611df69190612996565b92505081905550816002600083815260200190815260200160002060006101000a81548173ffffffffffffffffffffffffffffffffffffffff021916908373ffffffffffffffffffffffffffffffffffffffff160217905550808273ffffffffffffffffffffffffffffffffffffffff16600073ffffffffffffffffffffffffffffffffffffffff167fddf252ad1be2c89b69c2b068fc378daa952ba7f163c4a11628f55a4df523b3ef60405160405180910390a4611eb760008383611b45565b5050565b6000808273ffffffffffffffffffffffffffffffffffffffff163b119050919050565b508054611eea90612811565b6000825580601f10611efc5750611f1b565b601f016020900490600052602060002090810190611f1a9190611fe2565b5b50565b6040518060800160405280600073ffffffffffffffffffffffffffffffffffffffff1681526020016000815260200160608152602001606081525090565b828054611f6890612811565b90600052602060002090601f016020900481019282611f8a5760008555611fd1565b82601f10611fa357805160ff1916838001178555611fd1565b82800160010185558215611fd1579182015b82811115611fd0578251825591602001919060010190611fb5565b5b509050611fde9190611fe2565b5090565b5b80821115611ffb576000816000905550600101611fe3565b5090565b6000604051905090565b600080fd5b600080fd5b60007fffffffff0000000000000000000000000000000000000000000000000000000082169050919050565b61204881612013565b811461205357600080fd5b50565b6000813590506120658161203f565b92915050565b60006020828403121561208157612080612009565b5b600061208f84828501612056565b91505092915050565b60008115159050919050565b6120ad81612098565b82525050565b60006020820190506120c860008301846120a4565b92915050565b600081519050919050565b600082825260208201905092915050565b60005b838110156121085780820151818401526020810190506120ed565b83811115612117576000848401525b50505050565b6000601f19601f8301169050919050565b6000612139826120ce565b61214381856120d9565b93506121538185602086016120ea565b61215c8161211d565b840191505092915050565b60006020820190508181036000830152612181818461212e565b905092915050565b6000819050919050565b61219c81612189565b81146121a757600080fd5b50565b6000813590506121b981612193565b92915050565b6000602082840312156121d5576121d4612009565b5b60006121e3848285016121aa565b91505092915050565b600073ffffffffffffffffffffffffffffffffffffffff82169050919050565b6000612217826121ec565b9050919050565b6122278161220c565b82525050565b6000602082019050612242600083018461221e565b92915050565b6122518161220c565b811461225c57600080fd5b50565b60008135905061226e81612248565b92915050565b6000806040838503121561228b5761228a612009565b5b60006122998582860161225f565b92505060206122aa858286016121aa565b9150509250929050565b6000806000606084860312156122cd576122cc612009565b5b60006122db8682870161225f565b93505060206122ec8682870161225f565b92505060406122fd868287016121aa565b9150509250925092565b60006020828403121561231d5761231c612009565b5b600061232b8482850161225f565b91505092915050565b61233d8161220c565b82525050565b61234c81612189565b82525050565b600082825260208201905092915050565b600061236e826120ce565b6123788185612352565b93506123888185602086016120ea565b6123918161211d565b840191505092915050565b60006080830160008301516123b46000860182612334565b5060208301516123c76020860182612343565b50604083015184820360408601526123df8282612363565b915050606083015184820360608601526123f98282612363565b9150508091505092915050565b60006020820190508181036000830152612420818461239c565b905092915050565b61243181612189565b82525050565b600060208201905061244c6000830184612428565b92915050565b600080fd5b600080fd5b7f4e487b7100000000000000000000000000000000000000000000000000000000600052604160045260246000fd5b6124948261211d565b810181811067ffffffffffffffff821117156124b3576124b261245c565b5b80604052505050565b60006124c6611fff565b90506124d2828261248b565b919050565b600067ffffffffffffffff8211156124f2576124f161245c565b5b6124fb8261211d565b9050602081019050919050565b82818337600083830152505050565b600061252a612525846124d7565b6124bc565b90508281526020810184848401111561254657612545612457565b5b612551848285612508565b509392505050565b600082601f83011261256e5761256d612452565b5b813561257e848260208601612517565b91505092915050565b6000806000606084860312156125a05761259f612009565b5b60006125ae8682870161225f565b935050602084013567ffffffffffffffff8111156125cf576125ce61200e565b5b6125db86828701612559565b925050604084013567ffffffffffffffff8111156125fc576125fb61200e565b5b61260886828701612559565b9150509250925092565b61261b81612098565b811461262657600080fd5b50565b60008135905061263881612612565b92915050565b6000806040838503121561265557612654612009565b5b60006126638582860161225f565b925050602061267485828601612629565b9150509250929050565b600067ffffffffffffffff8211156126995761269861245c565b5b6126a28261211d565b9050602081019050919050565b60006126c26126bd8461267e565b6124bc565b9050828152602081018484840111156126de576126dd612457565b5b6126e9848285612508565b509392505050565b600082601f83011261270657612705612452565b5b81356127168482602086016126af565b91505092915050565b6000806000806080858703121561273957612738612009565b5b60006127478782880161225f565b94505060206127588782880161225f565b9350506040612769878288016121aa565b925050606085013567ffffffffffffffff81111561278a5761278961200e565b5b612796878288016126f1565b91505092959194509250565b600080604083850312156127b9576127b8612009565b5b60006127c78582860161225f565b92505060206127d88582860161225f565b9150509250929050565b7f4e487b7100000000000000000000000000000000000000000000000000000000600052602260045260246000fd5b6000600282049050600182168061282957607f821691505b6020821081141561283d5761283c6127e2565b5b50919050565b7f4552433732313a20617070726f76616c20746f2063757272656e74206f776e6560008201527f7200000000000000000000000000000000000000000000000000000000000000602082015250565b600061289f6021836120d9565b91506128aa82612843565b604082019050919050565b600060208201905081810360008301526128ce81612892565b9050919050565b7f4552433732313a20617070726f76652063616c6c6572206973206e6f7420746f60008201527f6b656e206f776e6572206e6f7220617070726f76656420666f7220616c6c0000602082015250565b6000612931603e836120d9565b915061293c826128d5565b604082019050919050565b6000602082019050818103600083015261296081612924565b9050919050565b7f4e487b7100000000000000000000000000000000000000000000000000000000600052601160045260246000fd5b60006129a182612189565b91506129ac83612189565b9250827fffffffffffffffffffffffffffffffffffffffffffffffffffffffffffffffff038211156129e1576129e0612967565b5b828201905092915050565b60006129f782612189565b91506000821415612a0b57612a0a612967565b5b600182039050919050565b7f4552433732313a2063616c6c6572206973206e6f7420746f6b656e206f776e6560008201527f72206e6f7220617070726f766564000000000000000000000000000000000000602082015250565b6000612a72602e836120d9565b9150612a7d82612a16565b604082019050919050565b60006020820190508181036000830152612aa181612a65565b9050919050565b7f4552433732313a20696e76616c696420746f6b656e2049440000000000000000600082015250565b6000612ade6018836120d9565b9150612ae982612aa8565b602082019050919050565b60006020820190508181036000830152612b0d81612ad1565b9050919050565b7f4552433732313a2061646472657373207a65726f206973206e6f74206120766160008201527f6c6964206f776e65720000000000000000000000000000000000000000000000602082015250565b6000612b706029836120d9565b9150612b7b82612b14565b604082019050919050565b60006020820190508181036000830152612b9f81612b63565b9050919050565b6000612bb182612189565b91507fffffffffffffffffffffffffffffffffffffffffffffffffffffffffffffffff821415612be457612be3612967565b5b600182019050919050565b7f4552433732313a207472616e736665722066726f6d20696e636f72726563742060008201527f6f776e6572000000000000000000000000000000000000000000000000000000602082015250565b6000612c4b6025836120d9565b9150612c5682612bef565b604082019050919050565b60006020820190508181036000830152612c7a81612c3e565b9050919050565b7f4552433732313a207472616e7366657220746f20746865207a65726f2061646460008201527f7265737300000000000000000000000000000000000000000000000000000000602082015250565b6000612cdd6024836120d9565b9150612ce882612c81565b604082019050919050565b60006020820190508181036000830152612d0c81612cd0565b9050919050565b6000612d1e82612189565b9150612d2983612189565b925082821015612d3c57612d3b612967565b5b828203905092915050565b7f4552433732313a20617070726f766520746f2063616c6c657200000000000000600082015250565b6000612d7d6019836120d9565b9150612d8882612d47565b602082019050919050565b60006020820190508181036000830152612dac81612d70565b9050919050565b7f4552433732313a207472616e7366657220746f206e6f6e20455243373231526560008201527f63656976657220696d706c656d656e7465720000000000000000000000000000602082015250565b6000612e0f6032836120d9565b9150612e1a82612db3565b604082019050919050565b60006020820190508181036000830152612e3e81612e02565b9050919050565b600081519050919050565b600082825260208201905092915050565b6000612e6c82612e45565b612e768185612e50565b9350612e868185602086016120ea565b612e8f8161211d565b840191505092915050565b6000608082019050612eaf600083018761221e565b612ebc602083018661221e565b612ec96040830185612428565b8181036060830152612edb8184612e61565b905095945050505050565b600081519050612ef58161203f565b92915050565b600060208284031215612f1157612f10612009565b5b6000612f1f84828501612ee6565b91505092915050565b7f4552433732313a206d696e7420746f20746865207a65726f2061646472657373600082015250565b6000612f5e6020836120d9565b9150612f6982612f28565b602082019050919050565b60006020820190508181036000830152612f8d81612f51565b9050919050565b7f4552433732313a20746f6b656e20616c7265616479206d696e74656400000000600082015250565b6000612fca601c836120d9565b9150612fd582612f94565b602082019050919050565b60006020820190508181036000830152612ff981612fbd565b905091905056fe697066733a2f2f62616679626569673337696f6972373673376d67356f6f6265746e636f6a636d3363336878617379643472766964346a71687934676b61686567342f3f66696c656e616d653d302d5055472e6a736f6ea264697066735822122097a6c8ef311fefd1f7052b9af79e7d6aa36c8a2ca9f64d80f312db7a2fac36d764736f6c63430008080033",
  "devdoc": {
    "kind": "dev",
    "methods": {
      "approve(address,uint256)": {
        "details": "See {IERC721-approve}."
      },
      "balanceOf(address)": {
        "details": "See {IERC721-balanceOf}."
      },
      "getApproved(uint256)": {
        "details": "See {IERC721-getApproved}."
      },
      "isApprovedForAll(address,address)": {
        "details": "See {IERC721-isApprovedForAll}."
      },
      "name()": {
        "details": "See {IERC721Metadata-name}."
      },
      "ownerOf(uint256)": {
        "details": "See {IERC721-ownerOf}."
      },
      "safeTransferFrom(address,address,uint256)": {
        "details": "See {IERC721-safeTransferFrom}."
      },
      "safeTransferFrom(address,address,uint256,bytes)": {
        "details": "See {IERC721-safeTransferFrom}."
      },
      "setApprovalForAll(address,bool)": {
        "details": "See {IERC721-setApprovalForAll}."
      },
      "supportsInterface(bytes4)": {
        "details": "See {IERC165-supportsInterface}."
      },
      "symbol()": {
        "details": "See {IERC721Metadata-symbol}."
      },
      "tokenURI(uint256)": {
        "details": "See {IERC721Metadata-tokenURI}."
      },
      "transferFrom(address,address,uint256)": {
        "details": "See {IERC721-transferFrom}."
      }
    },
    "version": 1
  },
  "userdoc": {
    "kind": "user",
    "methods": {},
    "version": 1
  },
  "storageLayout": {
    "storage": [
      {
        "astId": 138,
        "contract": "contracts/PairValidation.sol:PairValidation",
        "label": "_name",
        "offset": 0,
        "slot": "0",
        "type": "t_string_storage"
      },
      {
        "astId": 140,
        "contract": "contracts/PairValidation.sol:PairValidation",
        "label": "_symbol",
        "offset": 0,
        "slot": "1",
        "type": "t_string_storage"
      },
      {
        "astId": 144,
        "contract": "contracts/PairValidation.sol:PairValidation",
        "label": "_owners",
        "offset": 0,
        "slot": "2",
        "type": "t_mapping(t_uint256,t_address)"
      },
      {
        "astId": 148,
        "contract": "contracts/PairValidation.sol:PairValidation",
        "label": "_balances",
        "offset": 0,
        "slot": "3",
        "type": "t_mapping(t_address,t_uint256)"
      },
      {
        "astId": 152,
        "contract": "contracts/PairValidation.sol:PairValidation",
        "label": "_tokenApprovals",
        "offset": 0,
        "slot": "4",
        "type": "t_mapping(t_uint256,t_address)"
      },
      {
        "astId": 158,
        "contract": "contracts/PairValidation.sol:PairValidation",
        "label": "_operatorApprovals",
        "offset": 0,
        "slot": "5",
        "type": "t_mapping(t_address,t_mapping(t_address,t_bool))"
      },
      {
        "astId": 1733,
        "contract": "contracts/PairValidation.sol:PairValidation",
        "label": "s_tokenCounter",
        "offset": 0,
        "slot": "6",
        "type": "t_uint256"
      },
      {
        "astId": 1735,
        "contract": "contracts/PairValidation.sol:PairValidation",
        "label": "s_mappingSize",
        "offset": 0,
        "slot": "7",
        "type": "t_uint256"
      },
      {
        "astId": 1760,
        "contract": "contracts/PairValidation.sol:PairValidation",
        "label": "s_activeRequests",
        "offset": 0,
        "slot": "8",
        "type": "t_mapping(t_address,t_struct(RequestDetails)1747_storage)"
      }
    ],
    "types": {
      "t_address": {
        "encoding": "inplace",
        "label": "address",
        "numberOfBytes": "20"
      },
      "t_bool": {
        "encoding": "inplace",
        "label": "bool",
        "numberOfBytes": "1"
      },
      "t_mapping(t_address,t_bool)": {
        "encoding": "mapping",
        "key": "t_address",
        "label": "mapping(address => bool)",
        "numberOfBytes": "32",
        "value": "t_bool"
      },
      "t_mapping(t_address,t_mapping(t_address,t_bool))": {
        "encoding": "mapping",
        "key": "t_address",
        "label": "mapping(address => mapping(address => bool))",
        "numberOfBytes": "32",
        "value": "t_mapping(t_address,t_bool)"
      },
      "t_mapping(t_address,t_struct(RequestDetails)1747_storage)": {
        "encoding": "mapping",
        "key": "t_address",
        "label": "mapping(address => struct PairValidation.RequestDetails)",
        "numberOfBytes": "32",
        "value": "t_struct(RequestDetails)1747_storage"
      },
      "t_mapping(t_address,t_uint256)": {
        "encoding": "mapping",
        "key": "t_address",
        "label": "mapping(address => uint256)",
        "numberOfBytes": "32",
        "value": "t_uint256"
      },
      "t_mapping(t_uint256,t_address)": {
        "encoding": "mapping",
        "key": "t_uint256",
        "label": "mapping(uint256 => address)",
        "numberOfBytes": "32",
        "value": "t_address"
      },
      "t_string_storage": {
        "encoding": "bytes",
        "label": "string",
        "numberOfBytes": "32"
      },
      "t_struct(RequestDetails)1747_storage": {
        "encoding": "inplace",
        "label": "struct PairValidation.RequestDetails",
        "members": [
          {
            "astId": 1740,
            "contract": "contracts/PairValidation.sol:PairValidation",
            "label": "requestorAddress",
            "offset": 0,
            "slot": "0",
            "type": "t_address"
          },
          {
            "astId": 1742,
            "contract": "contracts/PairValidation.sol:PairValidation",
            "label": "id",
            "offset": 0,
            "slot": "1",
            "type": "t_uint256"
          },
          {
            "astId": 1744,
            "contract": "contracts/PairValidation.sol:PairValidation",
            "label": "name1",
            "offset": 0,
            "slot": "2",
            "type": "t_string_storage"
          },
          {
            "astId": 1746,
            "contract": "contracts/PairValidation.sol:PairValidation",
            "label": "name2",
            "offset": 0,
            "slot": "3",
            "type": "t_string_storage"
          }
        ],
        "numberOfBytes": "128"
      },
      "t_uint256": {
        "encoding": "inplace",
        "label": "uint256",
        "numberOfBytes": "32"
      }
    }
  }
}